:020000040800F2
:1000000078060020650200087B0D0008590C0008E6
:10001000790D00085B040008390F0008000000009B
:100020000000000000000000000000007F0D00083C
:100030005D040008000000007D0D0008810D00082F
:100040007F0200087F0200087F0200087F0200088C
:100050007F0200087F0200087F0200087F0200087C
:100060007F0200087F0200087F0200087F0200086C
:100070007F0200087F0200087F0200087F0200085C
:100080007F0200087F0200087F0200087F0200084C
:100090007F0200087F0200087F0200087F0200083C
:1000A0007F0200087F0200087F0200087F0200082C
:1000B0007F0200087F0200087F0200087F0200081C
:1000C0007F0200087F0200087F0200087F0200080C
:1000D0007F0200087F0200087F0200087F020008FC
:1000E0007F0200087F0200087F0200087F020008EC
:1000F0007F0200087F0200087F0200087F020008DC
:10010000000000007F0200087F0200087F02000854
:1001100000000000000000007F0200087F020008CD
:100120007F0200087F0200087F0200087F020008AB
:100130007F0200087F0200087F0200087F0200089B
:100140007F0200087F0200087F0200087F0200088B
:100150007F0200087F0200087F0200087F0200087B
:100160007F0200087F02000800000000000000007D
:10017000000000000000000000000000000000007F
:100180007F0200087F02000800000000000000005D
:100190007F0200087F02000800000000000000004D
:1001A000000000000000000000000000000000004F
:1001B0007F02000800000000000000007F0200082D
:1001C0007F02000800F002F800F03CF80AA090E876
:1001D000000C82448344AAF10107DA4501D100F002
:1001E00031F8AFF2090EBAE80F0013F0010F18BF93
:1001F000FB1A43F001031847900D0000B00D0000FA
:10020000103A24BF78C878C1FAD8520724BF30C842
:1002100030C144BF04680C60704700000023002414
:1002200000250026103A28BF78C1FBD8520728BF06
:1002300030C148BF0B6070471FB500F097FE1FBD6F
:1002400010B510BD00F0CFF81146FFF7F5FF00F034
:1002500084FE00F0EDF803B4FFF7F2FF03BC00F0FA
:10026000F5F800000948804709480047FEE7FEE727
:10027000FEE7FEE7FEE7FEE7FEE7FEE7FEE7FEE756
:1002800004480549054A064B70470000010E000866
:10029000C5010008780000207806002078020020C0
:1002A0007802002053EA020C00F069802DE9F04B3F
:1002B0004FF00006002B1FBFB3FA83F503FA05F4D5
:1002C00024FA05F65E4012BF1643B2FA82F502FA2E
:1002D00005F4C5F120051EBF22FA05FC44EA0C0412
:1002E000203556EA044C4FEA144418BF641C4FF002
:1002F00000084FF00009904271EB030C39D300293C
:1003000019BFB1FA81F701FA07F6B0FA80F700FADF
:1003100007F6C7F120071EBF20FA07FC46EA0C06C5
:100320002037B6FBF4FCA7EB0507103F07F01F0BC7
:10033000CBF120060CFA0BFB2CFA06F644BFB346B1
:100340000026202FA4BF5E464FF0000B5BEA060C90
:1003500008BF4FF0010B19EB0B09ABFB027C48EB1C
:100360000608C01B06FB02CC0BFB03CC71EB0C0197
:10037000C1E70B46024641464846BDE8F08B13B53F
:100380004FF000004FF00001AFF30080BDE81C40CB
:1003900070474FF0000200B5134694469646203948
:1003A00022BFA0E80C50A0E80C50B1F12001BFF42E
:1003B000F7AF090728BFA0E80C5048BF0CC05DF894
:1003C00004EB890028BF40F8042B08BF704748BFE2
:1003D00020F8022B11F0804F18BF00F8012B704756
:1003E000704770477047754600F02CF8AE46050020
:1003F0006946534620F00700854618B020B5FFF740
:100400003FFFBDE820404FF000064FF000074FF0DF
:1004100000084FF0000B21F00701AC46ACE8C00922
:10042000ACE8C009ACE8C009ACE8C0098D4670472B
:1004300010B50446AFF300802046BDE81040FFF73A
:100440000ABF00000048704718000020014918202A
:10045000ABBEFEE7260002007047FEE770470000D3
:1004600070B5044600F0F4F80546601C02D004485C
:100470000078044400F0ECF8401BA042FAD370BDB1
:10048000000000202DE9F84F00224FF0010803255D
:100490004FF00F0E0B6808FA02F42340A3426ED10E
:1004A0004E68012E05D0022E03D0112E01D0122E3F
:1004B00012D186684FEA420C05FA0CF7BE43CF68AA
:1004C00007FA0CF7374387604668A6430C79C4F3F4
:1004D0000014944034434460C668570005FA07FC92
:1004E0008C6826EA0C06BC403443C4604C68022C7D
:1004F00001D0122C13D1D40800EB8404A346D4F805
:10050000209054074FEAD46A0EFA0AF629EA06093F
:100510000E6906FA0AF646EA0906CBF82060066874
:100520000C7926EA0C0604F00304BC403443046052
:100530004C68E40060D5334C266846F4804626605B
:10054000246822F0030604F4804400942E4C3444C2
:10055000A446D4F808489607370F0EFA07F6B443B6
:100560002A4EB04201D100261FE0294EB04201D1EF
:1005700001261AE0274EB04202D1022615E03BE0E8
:10058000254EB04201D103260FE0244EB04201D1E6
:1005900004260AE0224EB04201D1052605E0214E94
:1005A000B04201D1062600E00726BE402643CCF823
:1005B00008681D4E34684F689C43FF0300D51C43F8
:1005C0003460194E361D34684F689C43BF0300D514
:1005D0001C433460144E083634684F689C43FF0255
:1005E00000D51C433460104E0C3634684F689C4371
:1005F000BF0200D51C433460521C102AFFF44AAFDE
:10060000BDE8F88F4438024000300140000002404D
:100610000004024000080240000C024000100240AA
:100620000014024000180240003C014000690840EC
:1006300000D001207047426931EA020200D109046A
:10064000816170470AB1816170470904FBE70000CE
:10065000014880687047000000000020024881685F
:100660000278114481607047000000200B4810B5EB
:10067000016841F400710160016841F4806101602A
:10068000016841F480710160032000F061F80020EE
:1006900000F006F800F024F8002010BD003C0240F5
:1006A00070B50D4D04464FF47A712878B1FBF0F027
:1006B0000A490968B1FBF0F000F0BAFA48B9102C09
:1006C00007D200222146501E00F022F800206C6064
:1006D00070BD012070BD0000000000200C00002053
:1006E0000A4808B5016841F480410160006800F4DF
:1006F000804000900548001F016841F08051016072
:10070000006800F08050009008BD000044380240AE
:10071000F0B40E4B1B680C46C3F30223C3F107056C
:10072000042D00D90425191D072901D2002300E05A
:10073000DB1E012606FA05F1491E214099409E4024
:10074000761E16403143F0BC00F0F7BB0CED00E024
:10075000064900F0070208684FF6FF03184040EA18
:100760000220034A10430860704700000CED00E0CF
:100770000000FA052DE9F0470E46050065D0DFF8C8
:100780001481D8F80000F7B200F00F00B04207D291
:1007900088F80070D8F8000000F00F00B04254D183
:1007A00028683D4C810712D5400703D5206840F4E6
:1007B000E05020602878000703D5206840F46040AE
:1007C00020602068A96820F0F000084320602878A5
:1007D000C0072DD0304968680839012812D0022896
:1007E00013D0032811D00968890700292DDA216860
:1007F00021F0030101432160FFF72AFF814641F206
:10080000883A0EE009688903EFE709688901ECE797
:10081000FFF71EFFA0EB0901514502D90320BDE8F7
:10082000F0872068696800F00C00B0EB810FEFD111
:10083000D8F80010404601F00F01B14207D9077007
:10084000006800F00F00B04201D00120E7E72878EF
:10085000400705D52068E96820F4E050084320608F
:100860002878000706D52068296920F4604040EA0E
:10087000C100206000F018F82168084AC1F3031194
:10088000515CC8400649086006480068FFF708FF49
:100890000020C4E7003C024008380240760F000800
:1008A0000C00002004000020154810B5006810F06E
:1008B0000C02144813D01449042A0FD0082A0ED170
:1008C0000F4C241F2268236802F03F025B0207D509
:1008D0002068C0F38810A0FB010106E0084610BDA7
:1008E0002168C1F38811A1FB00010023FFF7DAFCA6
:1008F0002168C1F30141491C4900B0FBF1F010BD72
:10090000083802400024F40040787D012DE9F84FBA
:1009100005460078DFF800B3C04CC0074AD0DBF8CA
:1009200000105846C1F38101012908D00068C0F3C6
:10093000810002280AD1201D0068400206D52068E7
:10094000800337D56868002872D033E06868B0F556
:10095000803F10D0B0F5A02F206810D020F4803058
:100960002060206820F4802020606868A8B1FFF72C
:100970006FFE06460DE0206840F48030F4E740F456
:1009800080202060F7E700BFFFF762FE801B64282D
:100990006FD820688003F7D50CE0FFF759FE0646B4
:1009A00005E000BFFFF754FE801B6428F0D82068E4
:1009B0008003F7D42878DFF8688280074FF00009B9
:1009C00040D5DBF80010584611F00C0F09D0006834
:1009D000C0F3810002280BD18F48001F006840023D
:1009E00006D42068800715D5E868012820D111E0D9
:1009F000E868B8B10120C8F80000FFF729FE0646F4
:100A000005E000BFFFF724FE801B0228C0D8206845
:100A10008007F7D52068296920F0F80040EAC10076
:100A200020600FE0C8F80090FFF712FE064606E0CF
:100A3000EFE000BFFFF70CFE801B022819D82068EA
:100A40008007F7D42878000722D5734E7548696966
:100A50006C3679B101210160FFF7FAFD074604E029
:100A6000FFF7F6FDC01B022803D830688007F7D5D2
:100A70000EE089E0C0F80090FFF7EAFD074604E0C9
:100A8000FFF7E6FDC01B02287ED830688007F7D448
:100A90002878400768D5DFF880A100270AF1380AD6
:100AA000DAF80000C0000BD4DAF8001041F08051F1
:100AB000CAF80010DAF80000012700F0805000901A
:100AC000594E3068C00510D4306840F480703060F2
:100AD000FFF7BEFD009005E0FFF7BAFD0099401A50
:100AE000022851D83068C005F6D54B4EA868683644
:100AF00001280FD00528306810D020F001003060A8
:100B0000306820F004003060A868B8B1FFF7A0FD9D
:100B100000900FE0306840F00100F4E740F004007E
:100B20003060F7E7FFF794FD0099411A41F28830F1
:100B3000814266D830688007F4D50EE0FFF788FD63
:100B4000009007E0FFF784FD0099411A41F28830D8
:100B5000814256D830688007F4D42FB1DAF80010FB
:100B600021F08051CAF80010A869D0B3DBF800105A
:100B7000C1F3810102294CD00228484607D0C8F8A9
:100B80006000FFF765FD00E03BE005463CE04746BE
:100B9000C8F86000FFF75CFD064604E0FFF758FD6B
:100BA000801B02282DD820688001F7D4F5E90701C1
:100BB0000843E9681D4A490802EB0141AA6841EA75
:100BC00082110843297C40EA0160297D40EA0171D5
:100BD0001148001F016001203866FFF739FD054606
:100BE00005E014E0FFF734FD401B022809D8206817
:100BF0008001F7D50BE000BFFFF72AFD401B02285C
:100C000002D90320BDE8F88F20688001F4D40020C9
:100C1000F8E70120F6E700000838024000380240FB
:100C200000004742800E4742007000400000FFFF76
:100C300010B5401EB0F1807F01D3012010BD4FF0F0
:100C4000E02460610F21601700F077F90020A061B7
:100C500007202061002010BDFEE7000070B5174D91
:100C60000024012204212846FFF7ECFC0122114652
:100C70002846FFF7E7FC6420FFF7F2FB002204217F
:100C80002846FFF7DFFC002201212846FFF7DAFCA7
:100C90006420FFF7E5FB641C032CE2DB0122042146
:100CA0002846FFF7CFFC012211462846FFF7CAFC71
:100CB000BDE870404FF4FA70FFF7D2BB001002405D
:100CC00030B587B014216846FFF763FB2548002440
:100CD000016841F010010160016801F01001059107
:100CE000016841F001010160016801F00101059115
:100CF000016841F020010160016801F020010591C7
:100D0000016841F0400101600068174D00F04000AB
:100D10000590012205212846FFF794FC052000904C
:100D20001120CDE90104694628460394FFF7AAFB88
:100D3000012002258DE8310069460C48FFF7A2FB2F
:100D40004FF440408DE8310069460948FFF79AFBAF
:100D500003208DE8310069460648FFF793FB07B092
:100D600030BD000030380240001002400000024058
:100D70000014024000180240FEE7FEE7704770478B
:100D8000FFF76CBC10B594B034216846FFF701FB47
:100D900014210DA8FFF7FDFA17480024016841F05F
:100DA00080510160006800F0805012901348016883
:100DB00041F4404101600068069400F44040129004
:100DC0000220009001200390102004906846FFF755
:100DD0009DFD08B172B6FEE70F20CDE90D040F941A
:100DE000109400210DA81194FFF7C4FC002801D035
:100DF00072B6FEE714B010BD4038024000700040EB
:100E00000548016841F47001016003494FF000603A
:100E1000803908607047000088ED00E02DE9F04758
:100E2000414C0125207868B10027404E012810D0A0
:100E3000DFF8FC804FF4004902281ED0032849D077
:100E4000012213E06078002801D025706570BDE8AC
:100E5000F087607810B1FFF701FF67700121354816
:100E6000FFF7E4FB08B1022026E00022042130460F
:100E7000FFF7E8FB0122114627E0607860B1FFF739
:100E8000EDFE6770002201213046FFF7DBFB0022F8
:100E900004213046FFF7D6FB494647464046FFF758
:100EA000C5FB88BB01E0657038E04FF480413846EF
:100EB000FFF7BCFB10B103202070F4E700220121F2
:100EC0003046FFF7BFFB002204213046BDE8F04763
:100ED000FFF7B8BB607890B1FFF7C0FE67700022E3
:100EE00004213046FFF7AEFB04213046FFF7A3FB99
:100EF00001213046FFF79FFB6068FFF7B1FA4946D2
:100F00004046FFF793FB08B12570CCE7042130463B
:100F1000FFF791FB01213046FFF78DFB6068BDE8CC
:100F2000F047FFF79DBA00001000002000100240BB
:100F30000014024000000240FEE70907090E0028E5
:100F400004DB00F1E02080F80014704700F00F008F
:100F500000F1E02080F8141D7047FFF787FBFFF7D2
:100F600011FFFFF7ADFEFFF759FFFCE74FF04070B0
:100F7000E1EE100A704700000000000000000102CE
:100F80000304060708090000A80F0008000000205D
:100F90001800000000020008C00F00081800002020
:100FA000600600001C0200080100000010000000A4
:100FB000000000000024F4000101000064000000B3
:04000005080001C529
:00000001FF
